{
  "address": "0xA30CB26383fe02012bf08B76CeA0cA809819c74D",
  "abi": [
    {
      "inputs": [
        {
          "internalType": "contract IERC20",
          "name": "asset_",
          "type": "address"
        },
        {
          "internalType": "contract IDealClient",
          "name": "_dealClient",
          "type": "address"
        }
      ],
      "stateMutability": "nonpayable",
      "type": "constructor"
    },
    {
      "inputs": [
        {
          "internalType": "uint256",
          "name": "proposalId",
          "type": "uint256"
        },
        {
          "internalType": "uint256",
          "name": "amount",
          "type": "uint256"
        }
      ],
      "name": "VotingError",
      "type": "error"
    },
    {
      "anonymous": false,
      "inputs": [
        {
          "indexed": true,
          "internalType": "address",
          "name": "owner",
          "type": "address"
        },
        {
          "indexed": true,
          "internalType": "address",
          "name": "spender",
          "type": "address"
        },
        {
          "indexed": false,
          "internalType": "uint256",
          "name": "value",
          "type": "uint256"
        }
      ],
      "name": "Approval",
      "type": "event"
    },
    {
      "anonymous": false,
      "inputs": [
        {
          "indexed": true,
          "internalType": "address",
          "name": "sender",
          "type": "address"
        },
        {
          "indexed": true,
          "internalType": "address",
          "name": "owner",
          "type": "address"
        },
        {
          "indexed": false,
          "internalType": "uint256",
          "name": "assets",
          "type": "uint256"
        },
        {
          "indexed": false,
          "internalType": "uint256",
          "name": "shares",
          "type": "uint256"
        }
      ],
      "name": "Deposit",
      "type": "event"
    },
    {
      "anonymous": false,
      "inputs": [
        {
          "indexed": false,
          "internalType": "uint256",
          "name": "proposalId",
          "type": "uint256"
        },
        {
          "indexed": false,
          "internalType": "address",
          "name": "patron",
          "type": "address"
        }
      ],
      "name": "ProposalSubmitted",
      "type": "event"
    },
    {
      "anonymous": false,
      "inputs": [
        {
          "indexed": true,
          "internalType": "address",
          "name": "from",
          "type": "address"
        },
        {
          "indexed": true,
          "internalType": "address",
          "name": "to",
          "type": "address"
        },
        {
          "indexed": false,
          "internalType": "uint256",
          "name": "value",
          "type": "uint256"
        }
      ],
      "name": "Transfer",
      "type": "event"
    },
    {
      "anonymous": false,
      "inputs": [
        {
          "indexed": true,
          "internalType": "address",
          "name": "sender",
          "type": "address"
        },
        {
          "indexed": true,
          "internalType": "address",
          "name": "receiver",
          "type": "address"
        },
        {
          "indexed": true,
          "internalType": "address",
          "name": "owner",
          "type": "address"
        },
        {
          "indexed": false,
          "internalType": "uint256",
          "name": "assets",
          "type": "uint256"
        },
        {
          "indexed": false,
          "internalType": "uint256",
          "name": "shares",
          "type": "uint256"
        }
      ],
      "name": "Withdraw",
      "type": "event"
    },
    {
      "inputs": [
        {
          "internalType": "address",
          "name": "owner",
          "type": "address"
        },
        {
          "internalType": "address",
          "name": "spender",
          "type": "address"
        }
      ],
      "name": "allowance",
      "outputs": [
        {
          "internalType": "uint256",
          "name": "",
          "type": "uint256"
        }
      ],
      "stateMutability": "view",
      "type": "function"
    },
    {
      "inputs": [
        {
          "internalType": "address",
          "name": "spender",
          "type": "address"
        },
        {
          "internalType": "uint256",
          "name": "amount",
          "type": "uint256"
        }
      ],
      "name": "approve",
      "outputs": [
        {
          "internalType": "bool",
          "name": "",
          "type": "bool"
        }
      ],
      "stateMutability": "nonpayable",
      "type": "function"
    },
    {
      "inputs": [],
      "name": "asset",
      "outputs": [
        {
          "internalType": "address",
          "name": "",
          "type": "address"
        }
      ],
      "stateMutability": "view",
      "type": "function"
    },
    {
      "inputs": [
        {
          "internalType": "address",
          "name": "account",
          "type": "address"
        }
      ],
      "name": "balanceOf",
      "outputs": [
        {
          "internalType": "uint256",
          "name": "",
          "type": "uint256"
        }
      ],
      "stateMutability": "view",
      "type": "function"
    },
    {
      "inputs": [
        {
          "internalType": "uint256",
          "name": "shares",
          "type": "uint256"
        }
      ],
      "name": "convertToAssets",
      "outputs": [
        {
          "internalType": "uint256",
          "name": "",
          "type": "uint256"
        }
      ],
      "stateMutability": "view",
      "type": "function"
    },
    {
      "inputs": [
        {
          "internalType": "uint256",
          "name": "assets",
          "type": "uint256"
        }
      ],
      "name": "convertToShares",
      "outputs": [
        {
          "internalType": "uint256",
          "name": "",
          "type": "uint256"
        }
      ],
      "stateMutability": "view",
      "type": "function"
    },
    {
      "inputs": [],
      "name": "decimals",
      "outputs": [
        {
          "internalType": "uint8",
          "name": "",
          "type": "uint8"
        }
      ],
      "stateMutability": "view",
      "type": "function"
    },
    {
      "inputs": [
        {
          "internalType": "address",
          "name": "spender",
          "type": "address"
        },
        {
          "internalType": "uint256",
          "name": "subtractedValue",
          "type": "uint256"
        }
      ],
      "name": "decreaseAllowance",
      "outputs": [
        {
          "internalType": "bool",
          "name": "",
          "type": "bool"
        }
      ],
      "stateMutability": "nonpayable",
      "type": "function"
    },
    {
      "inputs": [
        {
          "internalType": "uint256",
          "name": "assets",
          "type": "uint256"
        },
        {
          "internalType": "address",
          "name": "receiver",
          "type": "address"
        }
      ],
      "name": "deposit",
      "outputs": [
        {
          "internalType": "uint256",
          "name": "",
          "type": "uint256"
        }
      ],
      "stateMutability": "nonpayable",
      "type": "function"
    },
    {
      "inputs": [
        {
          "internalType": "uint256",
          "name": "amount",
          "type": "uint256"
        }
      ],
      "name": "donate",
      "outputs": [],
      "stateMutability": "nonpayable",
      "type": "function"
    },
    {
      "inputs": [
        {
          "internalType": "uint256",
          "name": "proposalId",
          "type": "uint256"
        }
      ],
      "name": "fundProposal",
      "outputs": [],
      "stateMutability": "nonpayable",
      "type": "function"
    },
    {
      "inputs": [
        {
          "internalType": "address",
          "name": "spender",
          "type": "address"
        },
        {
          "internalType": "uint256",
          "name": "addedValue",
          "type": "uint256"
        }
      ],
      "name": "increaseAllowance",
      "outputs": [
        {
          "internalType": "bool",
          "name": "",
          "type": "bool"
        }
      ],
      "stateMutability": "nonpayable",
      "type": "function"
    },
    {
      "inputs": [
        {
          "internalType": "address",
          "name": "",
          "type": "address"
        }
      ],
      "name": "maxDeposit",
      "outputs": [
        {
          "internalType": "uint256",
          "name": "",
          "type": "uint256"
        }
      ],
      "stateMutability": "view",
      "type": "function"
    },
    {
      "inputs": [
        {
          "internalType": "address",
          "name": "",
          "type": "address"
        }
      ],
      "name": "maxMint",
      "outputs": [
        {
          "internalType": "uint256",
          "name": "",
          "type": "uint256"
        }
      ],
      "stateMutability": "view",
      "type": "function"
    },
    {
      "inputs": [
        {
          "internalType": "address",
          "name": "owner",
          "type": "address"
        }
      ],
      "name": "maxRedeem",
      "outputs": [
        {
          "internalType": "uint256",
          "name": "",
          "type": "uint256"
        }
      ],
      "stateMutability": "view",
      "type": "function"
    },
    {
      "inputs": [
        {
          "internalType": "address",
          "name": "owner",
          "type": "address"
        }
      ],
      "name": "maxWithdraw",
      "outputs": [
        {
          "internalType": "uint256",
          "name": "",
          "type": "uint256"
        }
      ],
      "stateMutability": "view",
      "type": "function"
    },
    {
      "inputs": [
        {
          "internalType": "uint256",
          "name": "shares",
          "type": "uint256"
        },
        {
          "internalType": "address",
          "name": "receiver",
          "type": "address"
        }
      ],
      "name": "mint",
      "outputs": [
        {
          "internalType": "uint256",
          "name": "",
          "type": "uint256"
        }
      ],
      "stateMutability": "nonpayable",
      "type": "function"
    },
    {
      "inputs": [],
      "name": "name",
      "outputs": [
        {
          "internalType": "string",
          "name": "",
          "type": "string"
        }
      ],
      "stateMutability": "view",
      "type": "function"
    },
    {
      "inputs": [
        {
          "internalType": "uint256",
          "name": "assets",
          "type": "uint256"
        }
      ],
      "name": "previewDeposit",
      "outputs": [
        {
          "internalType": "uint256",
          "name": "",
          "type": "uint256"
        }
      ],
      "stateMutability": "view",
      "type": "function"
    },
    {
      "inputs": [
        {
          "internalType": "uint256",
          "name": "shares",
          "type": "uint256"
        }
      ],
      "name": "previewMint",
      "outputs": [
        {
          "internalType": "uint256",
          "name": "",
          "type": "uint256"
        }
      ],
      "stateMutability": "view",
      "type": "function"
    },
    {
      "inputs": [
        {
          "internalType": "uint256",
          "name": "shares",
          "type": "uint256"
        }
      ],
      "name": "previewRedeem",
      "outputs": [
        {
          "internalType": "uint256",
          "name": "",
          "type": "uint256"
        }
      ],
      "stateMutability": "view",
      "type": "function"
    },
    {
      "inputs": [
        {
          "internalType": "uint256",
          "name": "assets",
          "type": "uint256"
        }
      ],
      "name": "previewWithdraw",
      "outputs": [
        {
          "internalType": "uint256",
          "name": "",
          "type": "uint256"
        }
      ],
      "stateMutability": "view",
      "type": "function"
    },
    {
      "inputs": [],
      "name": "proposalCount",
      "outputs": [
        {
          "internalType": "uint256",
          "name": "",
          "type": "uint256"
        }
      ],
      "stateMutability": "view",
      "type": "function"
    },
    {
      "inputs": [
        {
          "internalType": "uint256",
          "name": "",
          "type": "uint256"
        }
      ],
      "name": "proposals",
      "outputs": [
        {
          "components": [
            {
              "internalType": "bytes",
              "name": "piece_cid",
              "type": "bytes"
            },
            {
              "internalType": "uint64",
              "name": "piece_size",
              "type": "uint64"
            },
            {
              "internalType": "bool",
              "name": "verified_deal",
              "type": "bool"
            },
            {
              "internalType": "string",
              "name": "label",
              "type": "string"
            },
            {
              "internalType": "int64",
              "name": "start_epoch",
              "type": "int64"
            },
            {
              "internalType": "int64",
              "name": "end_epoch",
              "type": "int64"
            },
            {
              "internalType": "uint256",
              "name": "storage_price_per_epoch",
              "type": "uint256"
            },
            {
              "internalType": "uint256",
              "name": "provider_collateral",
              "type": "uint256"
            },
            {
              "internalType": "uint256",
              "name": "client_collateral",
              "type": "uint256"
            },
            {
              "internalType": "uint64",
              "name": "extra_params_version",
              "type": "uint64"
            },
            {
              "components": [
                {
                  "internalType": "string",
                  "name": "location_ref",
                  "type": "string"
                },
                {
                  "internalType": "uint64",
                  "name": "car_size",
                  "type": "uint64"
                },
                {
                  "internalType": "bool",
                  "name": "skip_ipni_announce",
                  "type": "bool"
                },
                {
                  "internalType": "bool",
                  "name": "remove_unsealed_copy",
                  "type": "bool"
                }
              ],
              "internalType": "struct ExtraParamsV1",
              "name": "extra_params",
              "type": "tuple"
            }
          ],
          "internalType": "struct DealRequest",
          "name": "dealRequest",
          "type": "tuple"
        },
        {
          "internalType": "uint256",
          "name": "votes",
          "type": "uint256"
        }
      ],
      "stateMutability": "view",
      "type": "function"
    },
    {
      "inputs": [
        {
          "internalType": "uint256",
          "name": "shares",
          "type": "uint256"
        },
        {
          "internalType": "address",
          "name": "receiver",
          "type": "address"
        },
        {
          "internalType": "address",
          "name": "owner",
          "type": "address"
        }
      ],
      "name": "redeem",
      "outputs": [
        {
          "internalType": "uint256",
          "name": "",
          "type": "uint256"
        }
      ],
      "stateMutability": "nonpayable",
      "type": "function"
    },
    {
      "inputs": [
        {
          "components": [
            {
              "internalType": "bytes",
              "name": "piece_cid",
              "type": "bytes"
            },
            {
              "internalType": "uint64",
              "name": "piece_size",
              "type": "uint64"
            },
            {
              "internalType": "bool",
              "name": "verified_deal",
              "type": "bool"
            },
            {
              "internalType": "string",
              "name": "label",
              "type": "string"
            },
            {
              "internalType": "int64",
              "name": "start_epoch",
              "type": "int64"
            },
            {
              "internalType": "int64",
              "name": "end_epoch",
              "type": "int64"
            },
            {
              "internalType": "uint256",
              "name": "storage_price_per_epoch",
              "type": "uint256"
            },
            {
              "internalType": "uint256",
              "name": "provider_collateral",
              "type": "uint256"
            },
            {
              "internalType": "uint256",
              "name": "client_collateral",
              "type": "uint256"
            },
            {
              "internalType": "uint64",
              "name": "extra_params_version",
              "type": "uint64"
            },
            {
              "components": [
                {
                  "internalType": "string",
                  "name": "location_ref",
                  "type": "string"
                },
                {
                  "internalType": "uint64",
                  "name": "car_size",
                  "type": "uint64"
                },
                {
                  "internalType": "bool",
                  "name": "skip_ipni_announce",
                  "type": "bool"
                },
                {
                  "internalType": "bool",
                  "name": "remove_unsealed_copy",
                  "type": "bool"
                }
              ],
              "internalType": "struct ExtraParamsV1",
              "name": "extra_params",
              "type": "tuple"
            }
          ],
          "internalType": "struct DealRequest",
          "name": "dealRequest",
          "type": "tuple"
        },
        {
          "internalType": "uint256",
          "name": "amountOfVotes",
          "type": "uint256"
        }
      ],
      "name": "submitProposal",
      "outputs": [
        {
          "internalType": "uint256",
          "name": "proposalId",
          "type": "uint256"
        }
      ],
      "stateMutability": "nonpayable",
      "type": "function"
    },
    {
      "inputs": [],
      "name": "symbol",
      "outputs": [
        {
          "internalType": "string",
          "name": "",
          "type": "string"
        }
      ],
      "stateMutability": "view",
      "type": "function"
    },
    {
      "inputs": [],
      "name": "totalAssets",
      "outputs": [
        {
          "internalType": "uint256",
          "name": "",
          "type": "uint256"
        }
      ],
      "stateMutability": "view",
      "type": "function"
    },
    {
      "inputs": [],
      "name": "totalSupply",
      "outputs": [
        {
          "internalType": "uint256",
          "name": "",
          "type": "uint256"
        }
      ],
      "stateMutability": "view",
      "type": "function"
    },
    {
      "inputs": [
        {
          "internalType": "address",
          "name": "to",
          "type": "address"
        },
        {
          "internalType": "uint256",
          "name": "amount",
          "type": "uint256"
        }
      ],
      "name": "transfer",
      "outputs": [
        {
          "internalType": "bool",
          "name": "",
          "type": "bool"
        }
      ],
      "stateMutability": "nonpayable",
      "type": "function"
    },
    {
      "inputs": [
        {
          "internalType": "address",
          "name": "from",
          "type": "address"
        },
        {
          "internalType": "address",
          "name": "to",
          "type": "address"
        },
        {
          "internalType": "uint256",
          "name": "amount",
          "type": "uint256"
        }
      ],
      "name": "transferFrom",
      "outputs": [
        {
          "internalType": "bool",
          "name": "",
          "type": "bool"
        }
      ],
      "stateMutability": "nonpayable",
      "type": "function"
    },
    {
      "inputs": [
        {
          "internalType": "uint256",
          "name": "proposalId",
          "type": "uint256"
        },
        {
          "internalType": "uint256",
          "name": "amount",
          "type": "uint256"
        }
      ],
      "name": "vote",
      "outputs": [],
      "stateMutability": "nonpayable",
      "type": "function"
    },
    {
      "inputs": [],
      "name": "voteToken",
      "outputs": [
        {
          "internalType": "contract IVote",
          "name": "",
          "type": "address"
        }
      ],
      "stateMutability": "view",
      "type": "function"
    },
    {
      "inputs": [
        {
          "internalType": "uint256",
          "name": "assets",
          "type": "uint256"
        },
        {
          "internalType": "address",
          "name": "receiver",
          "type": "address"
        },
        {
          "internalType": "address",
          "name": "owner",
          "type": "address"
        }
      ],
      "name": "withdraw",
      "outputs": [
        {
          "internalType": "uint256",
          "name": "",
          "type": "uint256"
        }
      ],
      "stateMutability": "nonpayable",
      "type": "function"
    }
  ],
  "transactionHash": "0x2e49f44769da0c6c8313c33c153aaa759ebc321ee4d01fac9f070ef0239e9b3d",
  "args": [
    "0x12638b87555CA6d7C9dd0AdA6c1A6994FE25a55B",
    "0xdA6224c33f5cded5cD9f76e4445E2a1228B6dE63"
  ],
  "numDeployments": 4,
  "solcInputHash": "984fe38af7f2dfc560009447ecc02cef",
  "bytecode": "0x6101006040523480156200001257600080fd5b50604051620046163803806200461683398101604081905262000035916200025b565b816040518060400160405280601281526020017121b7b73a3934b13aba34b7b7102a37b5b2b760711b8152506040518060400160405280600381526020016244414f60e81b81525081600390816200008e9190620003b1565b5060046200009d8282620003b1565b505050600080620000b4836200012160201b60201c565b9150915081620000c6576012620000c8565b805b60ff1660a05250506001600160a01b0316608052604051620000ea9062000206565b604051809103906000f08015801562000107573d6000803e3d6000fd5b506001600160a01b0390811660c0521660e0525062000522565b60408051600481526024810182526020810180516001600160e01b031663313ce56760e01b17905290516000918291829182916001600160a01b038716916200016a91620004cc565b600060405180830381855afa9150503d8060008114620001a7576040519150601f19603f3d011682016040523d82523d6000602084013e620001ac565b606091505b5091509150818015620001c157506020815110155b15620001f957600081806020019051810190620001df9190620004f5565b905060ff8111620001f7576001969095509350505050565b505b5060009485945092505050565b61125580620033c183390190565b60006001600160a01b0382165b92915050565b6000620002218262000214565b6200023f8162000227565b81146200024b57600080fd5b50565b8051620002218162000234565b60008060408385031215620002735762000273600080fd5b60006200028185856200024e565b925050602062000294858286016200024e565b9150509250929050565b634e487b7160e01b600052604160045260246000fd5b634e487b7160e01b600052602260045260246000fd5b600281046001821680620002df57607f821691505b602082108103620002f457620002f4620002b4565b50919050565b600062000221620003088381565b90565b6200031683620002fa565b81546008840282811b60001990911b908116901990911617825550505050565b6000620003458184846200030b565b505050565b8181101562000369576200036060008262000336565b6001016200034a565b5050565b601f82111562000345576000818152602090206020601f85010481016020851015620003965750805b620003aa6020601f8601048301826200034a565b5050505050565b81516001600160401b03811115620003cd57620003cd6200029e565b620003d98254620002ca565b620003e68282856200036d565b6020601f8311600181146200041d5760008415620004045750858201515b600019600886021c198116600286021786555062000479565b600085815260208120601f198616915b828110156200044f57888501518255602094850194600190920191016200042d565b868310156200046c5784890151600019601f89166008021c191682555b6001600288020188555050505b505050505050565b60005b838110156200049e57818101518382015260200162000484565b50506000910152565b6000620004b2825190565b620004c281856020860162000481565b9290920192915050565b6000620004da8284620004a7565b9392505050565b806200023f565b80516200022181620004e1565b6000602082840312156200050c576200050c600080fd5b60006200051a8484620004e8565b949350505050565b60805160a05160c05160e051612e3b6200058660003960006111d50152600081816102dd01528181610ca5015261137501526000610b1401526000818161033e015281816107e6015281816112c801528181611656015261170d0152612e3b6000f3fe608060405234801561001057600080fd5b50600436106102265760003560e01c806394bf804d1161012a578063c63d75b6116100bd578063da35c6641161008c578063e210f4b511610071578063e210f4b5146104d8578063ef8b30f71461045d578063f14faf6f146104eb57600080fd5b8063da35c66414610496578063dd62ed3e1461049f57600080fd5b8063c63d75b61461037d578063c6e6f5921461045d578063ce96cb7714610470578063d905777e1461048357600080fd5b8063b384abef116100f9578063b384abef1461040f578063b3d7f6b914610424578063b460af9414610437578063ba0876521461044a57600080fd5b806394bf804d146103ce57806395d89b41146103e1578063a457c2d7146103e9578063a9059cbb146103fc57600080fd5b806318160ddd116101bd578063395093511161018c5780634cdad506116101715780634cdad506146102925780636e553f651461039257806370a08231146103a557600080fd5b8063395093511461036a578063402d267d1461037d57600080fd5b806318160ddd1461030c57806323b872dd14610314578063313ce5671461032757806338d52e0f1461033c57600080fd5b806307a2d13a116101f957806307a2d13a14610292578063095ea7b3146102a55780630a28a477146102c5578063160d66ae146102d857600080fd5b8063013cf08b1461022b57806301e1d1141461025557806306fdde031461026a578063074a46a21461027f575b600080fd5b61023e610239366004611c99565b6104fe565b60405161024c929190611e80565b60405180910390f35b61025d6107b3565b60405161024c9190611ea0565b610272610861565b60405161024c9190611eae565b61025d61028d366004611edb565b6108f3565b61025d6102a0366004611c99565b610ab4565b6102b86102b3366004611f57565b610ac1565b60405161024c9190611f79565b61025d6102d3366004611c99565b610ad9565b6102ff7f000000000000000000000000000000000000000000000000000000000000000081565b60405161024c9190611fc9565b60025461025d565b6102b8610322366004611fd7565b610ae6565b61032f610b0c565b60405161024c9190612030565b7f000000000000000000000000000000000000000000000000000000000000000060405161024c9190612047565b6102b8610378366004611f57565b610b38565b61025d61038b366004612055565b5060001990565b61025d6103a0366004612076565b610b77565b61025d6103b3366004612055565b6001600160a01b031660009081526020819052604090205490565b61025d6103dc366004612076565b610ba0565b610272610bba565b6102b86103f7366004611f57565b610bc9565b6102b861040a366004611f57565b610c28565b61042261041d3660046120a9565b610c36565b005b61025d610432366004611c99565b610d3a565b61025d6104453660046120cb565b610d47565b61025d6104583660046120cb565b610d93565b61025d61046b366004611c99565b610dd7565b61025d61047e366004612055565b610de4565b61025d610491366004612055565b610e08565b61025d60055481565b61025d6104ad366004612111565b6001600160a01b03918216600090815260016020908152604080832093909416825291909152205490565b6104226104e6366004611c99565b610e26565b6104226104f9366004611c99565b611298565b6006602052806000526040600020600091509050806000016040518061016001604052908160008201805461053290612149565b80601f016020809104026020016040519081016040528092919081815260200182805461055e90612149565b80156105ab5780601f10610580576101008083540402835291602001916105ab565b820191906000526020600020905b81548152906001019060200180831161058e57829003601f168201915b5050509183525050600182015467ffffffffffffffff81166020830152600160401b900460ff16151560408201526002820180546060909201916105ee90612149565b80601f016020809104026020016040519081016040528092919081815260200182805461061a90612149565b80156106675780601f1061063c57610100808354040283529160200191610667565b820191906000526020600020905b81548152906001019060200180831161064a57829003601f168201915b50505091835250506003820154600781810b6020840152600160401b909104810b604080840191909152600484015460608401526005840154608080850191909152600685015460a08501529184015467ffffffffffffffff1660c08401528051918201905260088301805460e090930192829082906106e690612149565b80601f016020809104026020016040519081016040528092919081815260200182805461071290612149565b801561075f5780601f106107345761010080835404028352916020019161075f565b820191906000526020600020905b81548152906001019060200180831161074257829003601f168201915b50505091835250506001919091015467ffffffffffffffff8116602083015260ff600160401b82048116151560408401526901000000000000000000909104161515606090910152905250600a9091015482565b6040517f70a082310000000000000000000000000000000000000000000000000000000081526000906001600160a01b037f000000000000000000000000000000000000000000000000000000000000000016906370a082319061081b903090600401612047565b602060405180830381865afa158015610838573d6000803e3d6000fd5b505050506040513d601f19601f8201168201806040525081019061085c919061217a565b905090565b60606003805461087090612149565b80601f016020809104026020016040519081016040528092919081815260200182805461089c90612149565b80156108e95780601f106108be576101008083540402835291602001916108e9565b820191906000526020600020905b8154815290600101906020018083116108cc57829003601f168201915b5050505050905090565b60058054600101908190556040805180820190915280610912856124b3565b815260006020918201819052838152600690915260409020815180518290819061093c9082612555565b50602082015160018201805460408501511515600160401b0268ffffffffffffffffff1990911667ffffffffffffffff909316929092179190911790556060820151600282019061098d9082612555565b50608082015160038201805460a085015167ffffffffffffffff908116600160401b026fffffffffffffffffffffffffffffffff199092169381169390931717905560c0830151600483015560e0830151600583015561010083015160068301556101208301516007830180549190921667ffffffffffffffff1991909116179055610140820151805160088301908190610a289082612555565b50602082810151600190920180546040850151606090950151151569010000000000000000000269ff00000000000000000019951515600160401b0268ffffffffffffffffff1990921667ffffffffffffffff909516949094171793909316919091179091559390930151600a9092019190915550508115610aae57610aae8183610c36565b92915050565b6000610aae8260006113e1565b600033610acf81858561141b565b5060019392505050565b6000610aae8260016114cf565b600033610af48582856114ff565b610aff858585611561565b60019150505b9392505050565b600061085c817f000000000000000000000000000000000000000000000000000000000000000061262f565b3360008181526001602090815260408083206001600160a01b0387168452909152812054909190610acf9082908690610b7290879061264c565b61141b565b6000610b87565b60405180910390fd5b6000610b9284610dd7565b9050610b0533848684611651565b600080610bac84610d3a565b9050610b0533848387611651565b60606004805461087090612149565b3360008181526001602090815260408083206001600160a01b038716845290915281205490919083811015610c105760405162461bcd60e51b8152600401610b7e906126c3565b610c1d828686840361141b565b506001949350505050565b600033610acf818585611561565b80600003610c75578160006040517fb8420057000000000000000000000000000000000000000000000000000000008152600401610b7e9291906126dc565b6040517f9dc29fac0000000000000000000000000000000000000000000000000000000081526001600160a01b037f00000000000000000000000000000000000000000000000000000000000000001690639dc29fac90610cdc90339085906004016126f7565b600060405180830381600087803b158015610cf657600080fd5b505af1158015610d0a573d6000803e3d6000fd5b5050506000838152600660205260408120600a018054849350909190610d3190849061264c565b90915550505050565b6000610aae8260016113e1565b6000610d5282610de4565b841115610d715760405162461bcd60e51b8152600401610b7e90612746565b6000610d7c85610ad9565b9050610d8b33858588856116da565b949350505050565b6000610d9e82610e08565b841115610dbd5760405162461bcd60e51b8152600401610b7e9061278a565b6000610dc885610ab4565b9050610d8b33858584896116da565b6000610aae8260006114cf565b6001600160a01b038116600090815260208190526040812054610aae9060006113e1565b6001600160a01b038116600090815260208190526040812054610aae565b60008181526006602052604080822081516101a08101835281549092839190820190839082908290610e5790612149565b80601f0160208091040260200160405190810160405280929190818152602001828054610e8390612149565b8015610ed05780601f10610ea557610100808354040283529160200191610ed0565b820191906000526020600020905b815481529060010190602001808311610eb357829003601f168201915b5050509183525050600182015467ffffffffffffffff81166020830152600160401b900460ff1615156040820152600282018054606090920191610f1390612149565b80601f0160208091040260200160405190810160405280929190818152602001828054610f3f90612149565b8015610f8c5780601f10610f6157610100808354040283529160200191610f8c565b820191906000526020600020905b815481529060010190602001808311610f6f57829003601f168201915b50505091835250506003820154600781810b6020840152600160401b909104810b604080840191909152600484015460608401526005840154608080850191909152600685015460a08501529184015467ffffffffffffffff1660c08401528051918201905260088301805460e0909301928290829061100b90612149565b80601f016020809104026020016040519081016040528092919081815260200182805461103790612149565b80156110845780601f1061105957610100808354040283529160200191611084565b820191906000526020600020905b81548152906001019060200180831161106757829003601f168201915b50505091835250506001919091015467ffffffffffffffff811660208084019190915260ff600160401b830481161515604080860191909152690100000000000000000090930416151560609093019290925291909252928452600a949094015492840192909252600086815260069093528220929350829050816111098282611c2b565b60018201805468ffffffffffffffffff1916905561112b600283016000611c2b565b6003820180546fffffffffffffffffffffffffffffffff19169055600060048301819055600583018190556006830181905560078301805467ffffffffffffffff19169055600883019061117f8282611c2b565b50600101805469ffffffffffffffffffff1916905550506000600a92909201919091555080516040517fdd27fe900000000000000000000000000000000000000000000000000000000081526001600160a01b037f0000000000000000000000000000000000000000000000000000000000000000169163dd27fe9091611209919060040161279a565b6020604051808303816000875af1158015611228573d6000803e3d6000fd5b505050506040513d601f19601f8201168201806040525081019061124c919061217a565b507f11641d364e926d2bf231c2d36f2a9271390042d717ea334a3e7c983c27a12391823360405161127e9291906127ab565b60405180910390a1611294338260200151611791565b5050565b6040517f23b872dd0000000000000000000000000000000000000000000000000000000081526001600160a01b037f000000000000000000000000000000000000000000000000000000000000000016906323b872dd90611301903390309086906004016127c6565b6020604051808303816000875af1158015611320573d6000803e3d6000fd5b505050506040513d601f19601f8201168201806040525081019061134491906127f9565b506040517f40c10f190000000000000000000000000000000000000000000000000000000081526001600160a01b037f000000000000000000000000000000000000000000000000000000000000000016906340c10f19906113ac90339085906004016126f7565b600060405180830381600087803b1580156113c657600080fd5b505af11580156113da573d6000803e3d6000fd5b5050505050565b6000610b056113ee6107b3565b6113f990600161264c565b6114056000600a612928565b600254611412919061264c565b85919085611827565b6001600160a01b0383166114415760405162461bcd60e51b8152600401610b7e90612997565b6001600160a01b0382166114675760405162461bcd60e51b8152600401610b7e90612a01565b6001600160a01b0380841660008181526001602090815260408083209487168084529490915290819020849055517f8c5be1e5ebec7d5bd14f71427d1e84f3dd0314c0f7b2291e5b200ac8c7c3b925906114c2908590611ea0565b60405180910390a3505050565b6000610b056114df82600a612928565b6002546114ec919061264c565b6114f46107b3565b61141290600161264c565b6001600160a01b03838116600090815260016020908152604080832093861683529290522054600019811461155b578181101561154e5760405162461bcd60e51b8152600401610b7e90612a45565b61155b848484840361141b565b50505050565b6001600160a01b0383166115875760405162461bcd60e51b8152600401610b7e90612aaf565b6001600160a01b0382166115ad5760405162461bcd60e51b8152600401610b7e90612b19565b6001600160a01b038316600090815260208190526040902054818110156115e65760405162461bcd60e51b8152600401610b7e90612b83565b6001600160a01b0380851660008181526020819052604080822086860390559286168082529083902080548601905591517fddf252ad1be2c89b69c2b068fc378daa952ba7f163c4a11628f55a4df523b3ef90611644908690611ea0565b60405180910390a361155b565b61167d7f0000000000000000000000000000000000000000000000000000000000000000853085611889565b6116878382611791565b826001600160a01b0316846001600160a01b03167fdcbc1c05240f31ff3ad067ef1ee35ce4997762752e3a095284754544f4c709d784846040516116cc929190612b93565b60405180910390a350505050565b826001600160a01b0316856001600160a01b0316146116fe576116fe8386836114ff565b611708838261190e565b6117337f000000000000000000000000000000000000000000000000000000000000000085846119c5565b826001600160a01b0316846001600160a01b0316866001600160a01b03167ffbde797d201c681b91056529119e0b02407c7bb96a4a2c75c01fc9667232c8db8585604051611782929190612b93565b60405180910390a45050505050565b6001600160a01b0382166117b75760405162461bcd60e51b8152600401610b7e90612bd5565b80600260008282546117c9919061264c565b90915550506001600160a01b038216600081815260208190526040808220805485019055517fddf252ad1be2c89b69c2b068fc378daa952ba7f163c4a11628f55a4df523b3ef9061181b908590611ea0565b60405180910390a35050565b6000806118358686866119e4565b9050600183600281111561184b5761184b612be5565b14801561186857506000848061186357611863612bfb565b868809115b1561187b5761187860018261264c565b90505b95945050505050565b505050565b61155b846323b872dd60e01b8585856040516024016118aa939291906127c6565b60408051601f198184030181529190526020810180517bffffffffffffffffffffffffffffffffffffffffffffffffffffffff167fffffffff0000000000000000000000000000000000000000000000000000000090931692909217909152611aa6565b6001600160a01b0382166119345760405162461bcd60e51b8152600401610b7e90612c6b565b6001600160a01b0382166000908152602081905260409020548181101561196d5760405162461bcd60e51b8152600401610b7e90612cd5565b6001600160a01b0383166000818152602081905260408082208585039055600280548690039055519091907fddf252ad1be2c89b69c2b068fc378daa952ba7f163c4a11628f55a4df523b3ef906114c2908690611ea0565b6118848363a9059cbb60e01b84846040516024016118aa9291906126f7565b6000808060001985870985870292508281108382030391505080600003611a1e57838281611a1457611a14612bfb565b0492505050610b05565b808411611a3d5760405162461bcd60e51b8152600401610b7e90612d19565b60008486880960026001871981018816978890046003810283188082028403028082028403028082028403028082028403028082028403029081029092039091026000889003889004909101858311909403939093029303949094049190911702949350505050565b6000611afb826040518060400160405280602081526020017f5361666545524332303a206c6f772d6c6576656c2063616c6c206661696c6564815250856001600160a01b0316611b389092919063ffffffff16565b9050805160001480611b1c575080806020019051810190611b1c91906127f9565b6118845760405162461bcd60e51b8152600401610b7e90612d83565b6060610d8b848460008585600080866001600160a01b03168587604051611b5f9190612db5565b60006040518083038185875af1925050503d8060008114611b9c576040519150601f19603f3d011682016040523d82523d6000602084013e611ba1565b606091505b5091509150611bb287838387611bbd565b979650505050505050565b60608315611bfc578251600003611bf5576001600160a01b0385163b611bf55760405162461bcd60e51b8152600401610b7e90612df5565b5081610d8b565b610d8b8383815115611c115781518083602001fd5b8060405162461bcd60e51b8152600401610b7e9190611eae565b508054611c3790612149565b6000825580601f10611c47575050565b601f016020900490600052602060002090810190611c659190611c68565b50565b5b80821115611c7d5760008155600101611c69565b5090565b805b8114611c6557600080fd5b8035610aae81611c81565b600060208284031215611cae57611cae600080fd5b6000610d8b8484611c8e565b60005b83811015611cd5578181015183820152602001611cbd565b50506000910152565b6000611ce8825190565b808452602084019350611cff818560208601611cba565b601f01601f19169290920192915050565b67ffffffffffffffff81165b82525050565b801515611d1c565b611d1c8160070b90565b80611d1c565b8051608080845260009190840190611d528282611cde565b9150506020830151611d676020860182611d10565b506040830151611d7a6040860182611d22565b506060830151611d8d6060860182611d22565b509392505050565b805161016080845260009190840190611dae8282611cde565b9150506020830151611dc36020860182611d10565b506040830151611dd66040860182611d22565b5060608301518482036060860152611dee8282611cde565b9150506080830151611e036080860182611d2a565b5060a0830151611e1660a0860182611d2a565b5060c0830151611e2960c0860182611d34565b5060e0830151611e3c60e0860182611d34565b50610100830151611e51610100860182611d34565b50610120830151611e66610120860182611d10565b5061014083015184820361014086015261187b8282611d3a565b60408082528101611e918185611d95565b9050610b056020830184611d34565b60208101610aae8284611d34565b60208082528101610b058184611cde565b60006101608284031215611ed557611ed5600080fd5b50919050565b60008060408385031215611ef157611ef1600080fd5b823567ffffffffffffffff811115611f0b57611f0b600080fd5b611f1785828601611ebf565b9250506020611f2885828601611c8e565b9150509250929050565b60006001600160a01b038216610aae565b611c8381611f32565b8035610aae81611f43565b60008060408385031215611f6d57611f6d600080fd5b6000611f178585611f4c565b60208101610aae8284611d22565b6000610aae6001600160a01b038316611f9e565b90565b6001600160a01b031690565b6000610aae82611f87565b6000610aae82611faa565b611d1c81611fb5565b60208101610aae8284611fc0565b600080600060608486031215611fef57611fef600080fd5b6000611ffb8686611f4c565b935050602061200c86828701611f4c565b925050604061201d86828701611c8e565b9150509250925092565b60ff8116611d1c565b60208101610aae8284612027565b611d1c81611f32565b60208101610aae828461203e565b60006020828403121561206a5761206a600080fd5b6000610d8b8484611f4c565b6000806040838503121561208c5761208c600080fd5b60006120988585611c8e565b9250506020611f2885828601611f4c565b600080604083850312156120bf576120bf600080fd5b6000611f178585611c8e565b6000806000606084860312156120e3576120e3600080fd5b60006120ef8686611c8e565b935050602061210086828701611f4c565b925050604061201d86828701611f4c565b6000806040838503121561212757612127600080fd5b60006120988585611f4c565b634e487b7160e01b600052602260045260246000fd5b60028104600182168061215d57607f821691505b602082108103611ed557611ed5612133565b8051610aae81611c81565b60006020828403121561218f5761218f600080fd5b6000610d8b848461216f565b634e487b7160e01b600052604160045260246000fd5b601f19601f830116810181811067ffffffffffffffff821117156121d7576121d761219b565b6040525050565b60006121e960405190565b90506121f582826121b1565b919050565b600067ffffffffffffffff8211156122145761221461219b565b601f19601f83011660200192915050565b82818337506000910152565b600061224461223f846121fa565b6121de565b90508281526020810184848401111561225f5761225f600080fd5b611d8d848285612225565b600082601f83011261227e5761227e600080fd5b8135610d8b848260208601612231565b67ffffffffffffffff8116611c83565b8035610aae8161228e565b801515611c83565b8035610aae816122a9565b611c838160070b90565b8035610aae816122bc565b6000608082840312156122e6576122e6600080fd5b6122f060806121de565b9050813567ffffffffffffffff81111561230c5761230c600080fd5b6123188482850161226a565b82525060206123298484830161229e565b602083015250604061233d848285016122b1565b6040830152506060612351848285016122b1565b60608301525092915050565b6000610160828403121561237357612373600080fd5b61237e6101606121de565b9050813567ffffffffffffffff81111561239a5761239a600080fd5b6123a68482850161226a565b82525060206123b78484830161229e565b60208301525060406123cb848285016122b1565b604083015250606082013567ffffffffffffffff8111156123ee576123ee600080fd5b6123fa8482850161226a565b606083015250608061240e848285016122c6565b60808301525060a0612422848285016122c6565b60a08301525060c061243684828501611c8e565b60c08301525060e061244a84828501611c8e565b60e08301525061010061245f84828501611c8e565b610100830152506101206124758482850161229e565b6101208301525061014082013567ffffffffffffffff81111561249a5761249a600080fd5b6124a6848285016122d1565b6101408301525092915050565b6000610aae368361235d565b6000610aae611f9b8381565b6124d4836124bf565b81546008840282811b60001990911b908116901990911617825550505050565b60006118848184846124cb565b81811015611294576125146000826124f4565b600101612501565b601f821115611884576000818152602090206020601f850104810160208510156125435750805b6113da6020601f860104830182612501565b815167ffffffffffffffff81111561256f5761256f61219b565b6125798254612149565b61258482828561251c565b6020601f8311600181146125b857600084156125a05750858201515b600019600886021c1981166002860217865550612611565b600085815260208120601f198616915b828110156125e857888501518255602094850194600190920191016125c8565b868310156126045784890151600019601f89166008021c191682555b6001600288020188555050505b505050505050565b634e487b7160e01b600052601160045260246000fd5b60ff918216919081169082820190811115610aae57610aae612619565b80820180821115610aae57610aae612619565b5060200190565b602581526000602082017f45524332303a2064656372656173656420616c6c6f77616e63652062656c6f7781527f207a65726f000000000000000000000000000000000000000000000000000000602082015291505b5060400190565b60208082528101610aae81612666565b611d1c816124bf565b604081016126ea8285611d34565b610b0560208301846126d3565b60408101612705828561203e565b610b056020830184611d34565b601f81526000602082017f455243343632363a207769746864726177206d6f7265207468616e206d6178008152915061265f565b60208082528101610aae81612712565b601d81526000602082017f455243343632363a2072656465656d206d6f7265207468616e206d61780000008152915061265f565b60208082528101610aae81612756565b60208082528101610b058184611d95565b604081016127b98285611d34565b610b05602083018461203e565b606081016127d4828661203e565b6127e1602083018561203e565b610d8b6040830184611d34565b8051610aae816122a9565b60006020828403121561280e5761280e600080fd5b6000610d8b84846127ee565b80825b60018511156128595780860481111561283857612838612619565b600185161561284657908102905b80026128528560011c90565b945061281d565b94509492505050565b60008261287157506001610b05565b8161287e57506000610b05565b8160018114612894576002811461289e576128cb565b6001915050610b05565b60ff8411156128af576128af612619565b8360020a9150848211156128c5576128c5612619565b50610b05565b5060208310610133831016604e8410600b84101617156128fe575081810a838111156128f9576128f9612619565b610b05565b61290b848484600161281a565b9250905081840481111561292157612921612619565b0292915050565b600060ff83169250610b056000198484612862565b602481526000602082017f45524332303a20617070726f76652066726f6d20746865207a65726f2061646481527f7265737300000000000000000000000000000000000000000000000000000000602082015291506126bc565b60208082528101610aae8161293d565b602281526000602082017f45524332303a20617070726f766520746f20746865207a65726f20616464726581527f7373000000000000000000000000000000000000000000000000000000000000602082015291506126bc565b60208082528101610aae816129a7565b601d81526000602082017f45524332303a20696e73756666696369656e7420616c6c6f77616e63650000008152915061265f565b60208082528101610aae81612a11565b602581526000602082017f45524332303a207472616e736665722066726f6d20746865207a65726f20616481527f6472657373000000000000000000000000000000000000000000000000000000602082015291506126bc565b60208082528101610aae81612a55565b602381526000602082017f45524332303a207472616e7366657220746f20746865207a65726f206164647281527f6573730000000000000000000000000000000000000000000000000000000000602082015291506126bc565b60208082528101610aae81612abf565b602681526000602082017f45524332303a207472616e7366657220616d6f756e742065786365656473206281527f616c616e63650000000000000000000000000000000000000000000000000000602082015291506126bc565b60208082528101610aae81612b29565b604081016127058285611d34565b601f81526000602082017f45524332303a206d696e7420746f20746865207a65726f2061646472657373008152915061265f565b60208082528101610aae81612ba1565b634e487b7160e01b600052602160045260246000fd5b634e487b7160e01b600052601260045260246000fd5b602181526000602082017f45524332303a206275726e2066726f6d20746865207a65726f2061646472657381527f7300000000000000000000000000000000000000000000000000000000000000602082015291506126bc565b60208082528101610aae81612c11565b602281526000602082017f45524332303a206275726e20616d6f756e7420657863656564732062616c616e81527f6365000000000000000000000000000000000000000000000000000000000000602082015291506126bc565b60208082528101610aae81612c7b565b601581526000602082017f4d6174683a206d756c446976206f766572666c6f7700000000000000000000008152915061265f565b60208082528101610aae81612ce5565b602a81526000602082017f5361666545524332303a204552433230206f7065726174696f6e20646964206e81527f6f74207375636365656400000000000000000000000000000000000000000000602082015291506126bc565b60208082528101610aae81612d29565b6000612d9d825190565b612dab818560208601611cba565b9290920192915050565b6000610b058284612d93565b601d81526000602082017f416464726573733a2063616c6c20746f206e6f6e2d636f6e74726163740000008152915061265f565b60208082528101610aae81612dc156fea2646970667358221220af44695a11efcc3cf4b16f5a0aff567d1c8f5d218b8779a2d4b8a3ad0c250ed264736f6c6343000811003360806040523480156200001157600080fd5b5060405180604001604052806004815260200163566f746560e01b8152506040518060400160405280600381526020016256544560e81b81525081600390816200005c9190620001fd565b5060046200006b8282620001fd565b50505062000088620000826200008e60201b60201c565b62000092565b620002cd565b3390565b600580546001600160a01b038381166001600160a01b0319831681179093556040519116919082907f8be0079c531659141344cd1fd0a4f28419497f9722a3daafe3b4186f6b6457e090600090a35050565b634e487b7160e01b600052604160045260246000fd5b634e487b7160e01b600052602260045260246000fd5b6002810460018216806200012557607f821691505b6020821081036200013a576200013a620000fa565b50919050565b6000620001516200014e8381565b90565b92915050565b620001628362000140565b81546008840282811b60001990911b908116901990911617825550505050565b60006200019181848462000157565b505050565b81811015620001b557620001ac60008262000182565b60010162000196565b5050565b601f82111562000191576000818152602090206020601f85010481016020851015620001e25750805b620001f66020601f86010483018262000196565b5050505050565b81516001600160401b03811115620002195762000219620000e4565b62000225825462000110565b62000232828285620001b9565b6020601f831160018114620002695760008415620002505750858201515b600019600886021c1981166002860217865550620002c5565b600085815260208120601f198616915b828110156200029b578885015182556020948501946001909201910162000279565b86831015620002b85784890151600019601f89166008021c191682555b6001600288020188555050505b505050505050565b610f7880620002dd6000396000f3fe608060405234801561001057600080fd5b50600436106101005760003560e01c8063715018a611610097578063a457c2d711610066578063a457c2d714610203578063a9059cbb14610216578063dd62ed3e14610229578063f2fde38b1461026257600080fd5b8063715018a6146101c75780638da5cb5b146101cf57806395d89b41146101e85780639dc29fac146101f057600080fd5b8063313ce567116100d3578063313ce56714610167578063395093511461017657806340c10f191461018957806370a082311461019e57600080fd5b806306fdde0314610105578063095ea7b31461012357806318160ddd1461014357806323b872dd14610154575b600080fd5b61010d610275565b60405161011a91906108b1565b60405180910390f35b61013661013136600461090a565b610307565b60405161011a9190610951565b6002545b60405161011a9190610965565b610136610162366004610973565b610321565b601260405161011a91906109cc565b61013661018436600461090a565b610345565b61019c61019736600461090a565b610384565b005b6101476101ac3660046109da565b6001600160a01b031660009081526020819052604090205490565b61019c61039a565b6005546001600160a01b031660405161011a9190610a0c565b61010d6103ae565b61019c6101fe36600461090a565b6103bd565b61013661021136600461090a565b6103cf565b61013661022436600461090a565b61042c565b610147610237366004610a1a565b6001600160a01b03918216600090815260016020908152604080832093909416825291909152205490565b61019c6102703660046109da565b61043a565b60606003805461028490610a63565b80601f01602080910402602001604051908101604052809291908181526020018280546102b090610a63565b80156102fd5780601f106102d2576101008083540402835291602001916102fd565b820191906000526020600020905b8154815290600101906020018083116102e057829003601f168201915b5050505050905090565b600033610315818585610474565b60019150505b92915050565b60003361032f858285610528565b61033a85858561058a565b506001949350505050565b3360008181526001602090815260408083206001600160a01b0387168452909152812054909190610315908290869061037f908790610aa5565b610474565b61038c61067a565b61039682826106a4565b5050565b6103a261067a565b6103ac600061073a565b565b60606004805461028490610a63565b6103c561067a565b61039682826107a4565b3360008181526001602090815260408083206001600160a01b03871684529091528120549091908381101561041f5760405162461bcd60e51b815260040161041690610b15565b60405180910390fd5b61033a8286868403610474565b60003361031581858561058a565b61044261067a565b6001600160a01b0381166104685760405162461bcd60e51b815260040161041690610b7f565b6104718161073a565b50565b6001600160a01b03831661049a5760405162461bcd60e51b815260040161041690610be9565b6001600160a01b0382166104c05760405162461bcd60e51b815260040161041690610c53565b6001600160a01b0380841660008181526001602090815260408083209487168084529490915290819020849055517f8c5be1e5ebec7d5bd14f71427d1e84f3dd0314c0f7b2291e5b200ac8c7c3b9259061051b908590610965565b60405180910390a3505050565b6001600160a01b03838116600090815260016020908152604080832093861683529290522054600019811461058457818110156105775760405162461bcd60e51b815260040161041690610c9a565b6105848484848403610474565b50505050565b6001600160a01b0383166105b05760405162461bcd60e51b815260040161041690610d04565b6001600160a01b0382166105d65760405162461bcd60e51b815260040161041690610d6e565b6001600160a01b0383166000908152602081905260409020548181101561060f5760405162461bcd60e51b815260040161041690610dd8565b6001600160a01b0380851660008181526020819052604080822086860390559286168082529083902080548601905591517fddf252ad1be2c89b69c2b068fc378daa952ba7f163c4a11628f55a4df523b3ef9061066d908690610965565b60405180910390a3610584565b6005546001600160a01b031633146103ac5760405162461bcd60e51b815260040161041690610e1a565b6001600160a01b0382166106ca5760405162461bcd60e51b815260040161041690610e5e565b80600260008282546106dc9190610aa5565b90915550506001600160a01b038216600081815260208190526040808220805485019055517fddf252ad1be2c89b69c2b068fc378daa952ba7f163c4a11628f55a4df523b3ef9061072e908590610965565b60405180910390a35050565b600580546001600160a01b038381167fffffffffffffffffffffffff0000000000000000000000000000000000000000831681179093556040519116919082907f8be0079c531659141344cd1fd0a4f28419497f9722a3daafe3b4186f6b6457e090600090a35050565b6001600160a01b0382166107ca5760405162461bcd60e51b815260040161041690610ec8565b6001600160a01b038216600090815260208190526040902054818110156108035760405162461bcd60e51b815260040161041690610f32565b6001600160a01b0383166000818152602081905260408082208585039055600280548690039055519091907fddf252ad1be2c89b69c2b068fc378daa952ba7f163c4a11628f55a4df523b3ef9061051b908690610965565b60005b8381101561087657818101518382015260200161085e565b50506000910152565b6000610889825190565b8084526020840193506108a081856020860161085b565b601f01601f19169290920192915050565b602080825281016108c2818461087f565b9392505050565b60006001600160a01b03821661031b565b6108e3816108c9565b811461047157600080fd5b803561031b816108da565b806108e3565b803561031b816108f9565b6000806040838503121561092057610920600080fd5b600061092c85856108ee565b925050602061093d858286016108ff565b9150509250929050565b8015155b82525050565b6020810161031b8284610947565b8061094b565b6020810161031b828461095f565b60008060006060848603121561098b5761098b600080fd5b600061099786866108ee565b93505060206109a8868287016108ee565b92505060406109b9868287016108ff565b9150509250925092565b60ff811661094b565b6020810161031b82846109c3565b6000602082840312156109ef576109ef600080fd5b60006109fb84846108ee565b949350505050565b61094b816108c9565b6020810161031b8284610a03565b60008060408385031215610a3057610a30600080fd5b6000610a3c85856108ee565b925050602061093d858286016108ee565b634e487b7160e01b600052602260045260246000fd5b600281046001821680610a7757607f821691505b602082108103610a8957610a89610a4d565b50919050565b634e487b7160e01b600052601160045260246000fd5b8082018082111561031b5761031b610a8f565b602581526000602082017f45524332303a2064656372656173656420616c6c6f77616e63652062656c6f7781527f207a65726f000000000000000000000000000000000000000000000000000000602082015291505b5060400190565b6020808252810161031b81610ab8565b602681526000602082017f4f776e61626c653a206e6577206f776e657220697320746865207a65726f206181527f646472657373000000000000000000000000000000000000000000000000000060208201529150610b0e565b6020808252810161031b81610b25565b602481526000602082017f45524332303a20617070726f76652066726f6d20746865207a65726f2061646481527f726573730000000000000000000000000000000000000000000000000000000060208201529150610b0e565b6020808252810161031b81610b8f565b602281526000602082017f45524332303a20617070726f766520746f20746865207a65726f20616464726581527f737300000000000000000000000000000000000000000000000000000000000060208201529150610b0e565b6020808252810161031b81610bf9565b601d81526000602082017f45524332303a20696e73756666696369656e7420616c6c6f77616e6365000000815291505b5060200190565b6020808252810161031b81610c63565b602581526000602082017f45524332303a207472616e736665722066726f6d20746865207a65726f20616481527f647265737300000000000000000000000000000000000000000000000000000060208201529150610b0e565b6020808252810161031b81610caa565b602381526000602082017f45524332303a207472616e7366657220746f20746865207a65726f206164647281527f657373000000000000000000000000000000000000000000000000000000000060208201529150610b0e565b6020808252810161031b81610d14565b602681526000602082017f45524332303a207472616e7366657220616d6f756e742065786365656473206281527f616c616e6365000000000000000000000000000000000000000000000000000060208201529150610b0e565b6020808252810161031b81610d7e565b60208082527f4f776e61626c653a2063616c6c6572206973206e6f7420746865206f776e657291019081526000610c93565b6020808252810161031b81610de8565b601f81526000602082017f45524332303a206d696e7420746f20746865207a65726f20616464726573730081529150610c93565b6020808252810161031b81610e2a565b602181526000602082017f45524332303a206275726e2066726f6d20746865207a65726f2061646472657381527f730000000000000000000000000000000000000000000000000000000000000060208201529150610b0e565b6020808252810161031b81610e6e565b602281526000602082017f45524332303a206275726e20616d6f756e7420657863656564732062616c616e81527f636500000000000000000000000000000000000000000000000000000000000060208201529150610b0e565b6020808252810161031b81610ed856fea2646970667358221220b429442c37bfc5fb5d6d34db187f31960f403b4cd1b29dae2be48bdd7e03cb8864736f6c63430008110033",
  "devdoc": {
    "kind": "dev",
    "methods": {
      "allowance(address,address)": {
        "details": "See {IERC20-allowance}."
      },
      "approve(address,uint256)": {
        "details": "See {IERC20-approve}. NOTE: If `amount` is the maximum `uint256`, the allowance is not updated on `transferFrom`. This is semantically equivalent to an infinite approval. Requirements: - `spender` cannot be the zero address."
      },
      "asset()": {
        "details": "See {IERC4626-asset}. "
      },
      "balanceOf(address)": {
        "details": "See {IERC20-balanceOf}."
      },
      "convertToAssets(uint256)": {
        "details": "See {IERC4626-convertToAssets}. "
      },
      "convertToShares(uint256)": {
        "details": "See {IERC4626-convertToShares}. "
      },
      "decimals()": {
        "details": "Decimals are computed by adding the decimal offset on top of the underlying asset's decimals. This \"original\" value is cached during construction of the vault contract. If this read operation fails (e.g., the asset has not been created yet), a default of 18 is used to represent the underlying asset's decimals. See {IERC20Metadata-decimals}."
      },
      "decreaseAllowance(address,uint256)": {
        "details": "Atomically decreases the allowance granted to `spender` by the caller. This is an alternative to {approve} that can be used as a mitigation for problems described in {IERC20-approve}. Emits an {Approval} event indicating the updated allowance. Requirements: - `spender` cannot be the zero address. - `spender` must have allowance for the caller of at least `subtractedValue`."
      },
      "deposit(uint256,address)": {
        "details": "See {IERC4626-deposit}. "
      },
      "increaseAllowance(address,uint256)": {
        "details": "Atomically increases the allowance granted to `spender` by the caller. This is an alternative to {approve} that can be used as a mitigation for problems described in {IERC20-approve}. Emits an {Approval} event indicating the updated allowance. Requirements: - `spender` cannot be the zero address."
      },
      "maxDeposit(address)": {
        "details": "See {IERC4626-maxDeposit}. "
      },
      "maxMint(address)": {
        "details": "See {IERC4626-maxMint}. "
      },
      "maxRedeem(address)": {
        "details": "See {IERC4626-maxRedeem}. "
      },
      "maxWithdraw(address)": {
        "details": "See {IERC4626-maxWithdraw}. "
      },
      "mint(uint256,address)": {
        "details": "See {IERC4626-mint}. As opposed to {deposit}, minting is allowed even if the vault is in a state where the price of a share is zero. In this case, the shares will be minted without requiring any assets to be deposited."
      },
      "name()": {
        "details": "Returns the name of the token."
      },
      "previewDeposit(uint256)": {
        "details": "See {IERC4626-previewDeposit}. "
      },
      "previewMint(uint256)": {
        "details": "See {IERC4626-previewMint}. "
      },
      "previewRedeem(uint256)": {
        "details": "See {IERC4626-previewRedeem}. "
      },
      "previewWithdraw(uint256)": {
        "details": "See {IERC4626-previewWithdraw}. "
      },
      "redeem(uint256,address,address)": {
        "details": "See {IERC4626-redeem}. "
      },
      "symbol()": {
        "details": "Returns the symbol of the token, usually a shorter version of the name."
      },
      "totalAssets()": {
        "details": "See {IERC4626-totalAssets}. "
      },
      "totalSupply()": {
        "details": "See {IERC20-totalSupply}."
      },
      "transfer(address,uint256)": {
        "details": "See {IERC20-transfer}. Requirements: - `to` cannot be the zero address. - the caller must have a balance of at least `amount`."
      },
      "transferFrom(address,address,uint256)": {
        "details": "See {IERC20-transferFrom}. Emits an {Approval} event indicating the updated allowance. This is not required by the EIP. See the note at the beginning of {ERC20}. NOTE: Does not update the allowance if the current allowance is the maximum `uint256`. Requirements: - `from` and `to` cannot be the zero address. - `from` must have a balance of at least `amount`. - the caller must have allowance for ``from``'s tokens of at least `amount`."
      },
      "withdraw(uint256,address,address)": {
        "details": "See {IERC4626-withdraw}. "
      }
    },
    "version": 1
  },
  "userdoc": {
    "kind": "user",
    "methods": {},
    "version": 1
  },
  "storageLayout": {
    "storage": [
      {
        "astId": 296,
        "contract": "contracts/DAO.sol:DAO",
        "label": "_balances",
        "offset": 0,
        "slot": "0",
        "type": "t_mapping(t_address,t_uint256)"
      },
      {
        "astId": 302,
        "contract": "contracts/DAO.sol:DAO",
        "label": "_allowances",
        "offset": 0,
        "slot": "1",
        "type": "t_mapping(t_address,t_mapping(t_address,t_uint256))"
      },
      {
        "astId": 304,
        "contract": "contracts/DAO.sol:DAO",
        "label": "_totalSupply",
        "offset": 0,
        "slot": "2",
        "type": "t_uint256"
      },
      {
        "astId": 306,
        "contract": "contracts/DAO.sol:DAO",
        "label": "_name",
        "offset": 0,
        "slot": "3",
        "type": "t_string_storage"
      },
      {
        "astId": 308,
        "contract": "contracts/DAO.sol:DAO",
        "label": "_symbol",
        "offset": 0,
        "slot": "4",
        "type": "t_string_storage"
      },
      {
        "astId": 3254,
        "contract": "contracts/DAO.sol:DAO",
        "label": "proposalCount",
        "offset": 0,
        "slot": "5",
        "type": "t_uint256"
      },
      {
        "astId": 3259,
        "contract": "contracts/DAO.sol:DAO",
        "label": "proposals",
        "offset": 0,
        "slot": "6",
        "type": "t_mapping(t_uint256,t_struct(Proposal)3454_storage)"
      }
    ],
    "types": {
      "t_address": {
        "encoding": "inplace",
        "label": "address",
        "numberOfBytes": "20"
      },
      "t_bool": {
        "encoding": "inplace",
        "label": "bool",
        "numberOfBytes": "1"
      },
      "t_bytes_storage": {
        "encoding": "bytes",
        "label": "bytes",
        "numberOfBytes": "32"
      },
      "t_int64": {
        "encoding": "inplace",
        "label": "int64",
        "numberOfBytes": "8"
      },
      "t_mapping(t_address,t_mapping(t_address,t_uint256))": {
        "encoding": "mapping",
        "key": "t_address",
        "label": "mapping(address => mapping(address => uint256))",
        "numberOfBytes": "32",
        "value": "t_mapping(t_address,t_uint256)"
      },
      "t_mapping(t_address,t_uint256)": {
        "encoding": "mapping",
        "key": "t_address",
        "label": "mapping(address => uint256)",
        "numberOfBytes": "32",
        "value": "t_uint256"
      },
      "t_mapping(t_uint256,t_struct(Proposal)3454_storage)": {
        "encoding": "mapping",
        "key": "t_uint256",
        "label": "mapping(uint256 => struct IDAO.Proposal)",
        "numberOfBytes": "32",
        "value": "t_struct(Proposal)3454_storage"
      },
      "t_string_storage": {
        "encoding": "bytes",
        "label": "string",
        "numberOfBytes": "32"
      },
      "t_struct(DealRequest)3523_storage": {
        "encoding": "inplace",
        "label": "struct DealRequest",
        "members": [
          {
            "astId": 3501,
            "contract": "contracts/DAO.sol:DAO",
            "label": "piece_cid",
            "offset": 0,
            "slot": "0",
            "type": "t_bytes_storage"
          },
          {
            "astId": 3503,
            "contract": "contracts/DAO.sol:DAO",
            "label": "piece_size",
            "offset": 0,
            "slot": "1",
            "type": "t_uint64"
          },
          {
            "astId": 3505,
            "contract": "contracts/DAO.sol:DAO",
            "label": "verified_deal",
            "offset": 8,
            "slot": "1",
            "type": "t_bool"
          },
          {
            "astId": 3507,
            "contract": "contracts/DAO.sol:DAO",
            "label": "label",
            "offset": 0,
            "slot": "2",
            "type": "t_string_storage"
          },
          {
            "astId": 3509,
            "contract": "contracts/DAO.sol:DAO",
            "label": "start_epoch",
            "offset": 0,
            "slot": "3",
            "type": "t_int64"
          },
          {
            "astId": 3511,
            "contract": "contracts/DAO.sol:DAO",
            "label": "end_epoch",
            "offset": 8,
            "slot": "3",
            "type": "t_int64"
          },
          {
            "astId": 3513,
            "contract": "contracts/DAO.sol:DAO",
            "label": "storage_price_per_epoch",
            "offset": 0,
            "slot": "4",
            "type": "t_uint256"
          },
          {
            "astId": 3515,
            "contract": "contracts/DAO.sol:DAO",
            "label": "provider_collateral",
            "offset": 0,
            "slot": "5",
            "type": "t_uint256"
          },
          {
            "astId": 3517,
            "contract": "contracts/DAO.sol:DAO",
            "label": "client_collateral",
            "offset": 0,
            "slot": "6",
            "type": "t_uint256"
          },
          {
            "astId": 3519,
            "contract": "contracts/DAO.sol:DAO",
            "label": "extra_params_version",
            "offset": 0,
            "slot": "7",
            "type": "t_uint64"
          },
          {
            "astId": 3522,
            "contract": "contracts/DAO.sol:DAO",
            "label": "extra_params",
            "offset": 0,
            "slot": "8",
            "type": "t_struct(ExtraParamsV1)3532_storage"
          }
        ],
        "numberOfBytes": "320"
      },
      "t_struct(ExtraParamsV1)3532_storage": {
        "encoding": "inplace",
        "label": "struct ExtraParamsV1",
        "members": [
          {
            "astId": 3525,
            "contract": "contracts/DAO.sol:DAO",
            "label": "location_ref",
            "offset": 0,
            "slot": "0",
            "type": "t_string_storage"
          },
          {
            "astId": 3527,
            "contract": "contracts/DAO.sol:DAO",
            "label": "car_size",
            "offset": 0,
            "slot": "1",
            "type": "t_uint64"
          },
          {
            "astId": 3529,
            "contract": "contracts/DAO.sol:DAO",
            "label": "skip_ipni_announce",
            "offset": 8,
            "slot": "1",
            "type": "t_bool"
          },
          {
            "astId": 3531,
            "contract": "contracts/DAO.sol:DAO",
            "label": "remove_unsealed_copy",
            "offset": 9,
            "slot": "1",
            "type": "t_bool"
          }
        ],
        "numberOfBytes": "64"
      },
      "t_struct(Proposal)3454_storage": {
        "encoding": "inplace",
        "label": "struct IDAO.Proposal",
        "members": [
          {
            "astId": 3451,
            "contract": "contracts/DAO.sol:DAO",
            "label": "dealRequest",
            "offset": 0,
            "slot": "0",
            "type": "t_struct(DealRequest)3523_storage"
          },
          {
            "astId": 3453,
            "contract": "contracts/DAO.sol:DAO",
            "label": "votes",
            "offset": 0,
            "slot": "10",
            "type": "t_uint256"
          }
        ],
        "numberOfBytes": "352"
      },
      "t_uint256": {
        "encoding": "inplace",
        "label": "uint256",
        "numberOfBytes": "32"
      },
      "t_uint64": {
        "encoding": "inplace",
        "label": "uint64",
        "numberOfBytes": "8"
      }
    }
  }
}